:1000000048C0AAC161C060C05FC05EC05DC05CC0C6
:100010005BC05AC059C058C057C056C055C054C024
:1000200053C052C051C06BC662C675C696C6BAC62A
:10003000BEC6F7C61BC74CC744C75BC708C62CC69D
:100040000902120001010080C8090400000000003C
:10005000000012011001FF000008C016DC050301BA
:10006000010200010E0355005300420061007300BD
:1000700070001C037700770077002E00660069008F
:100080007300630068006C002E00640065000403C8
:10009000090411241FBECFE5D4E0DEBFCDBF10E0C0
:1000A000A0E6B0E0E2E8F2E102C005900D92A637CA
:1000B000B107D9F711E0A6E7B0E001C01D92AB3C53
:1000C000B107E1F7BDD8DBC89BCFCF93DF93609139
:1000D000AC01635067FD14C02091A9018CE090E051
:1000E000821B9109EC01C055DE4F8091A8018D3231
:1000F00009F455C08091760087FD97C01092AC013D
:100100008091610084FF3EC0609160006F3FD1F13B
:10011000693008F46CC068506093600090919C0155
:1001200088E8892780939C0168E08091760087FDAC
:100130001CC02091AA013091AB0186FF6DC0ADE9D2
:10014000B1E0F901962F84918D9331969150D9F7B2
:100150008FEF860F90E00196280F391F3093AB0187
:100160002093AA01C4E0C60F4DC08DE991E0DFD60F
:10017000682F893008F49FC08FEF80936000CEE134
:10018000C093610094E186B3837031F49150D9F744
:100190001092AD011092A701DF91CF9108956830C0
:1001A00009F0ACCF83EC80939C018AE580936100D9
:1001B000109276008881807609F041C08A81109281
:1001C000A5019981911146C01092A60125EA31E05E
:1001D00082E03093AB012093AA019F81911104C06A
:1001E0009E81981708F4892F8093600087CF109222
:1001F000600090919C0188E8892780939C0161119F
:1002000094CFC4E08DE991E0A3D0CC3009F4B8CF0D
:100210008FEF80936000B4CFD901EDE9F1E0962F24
:100220008D9181939150E1F793CFCE014AD78F3FC3
:1002300001F1882309F462CF109260005FCFCE01F4
:10024000E4D48F3F51F6988197FD1DC090E89093BC
:100250007600CACF953089F0963009F19830D9F000
:10026000993099F081E09A3009F080E025EA31E098
:10027000B0CF8EE18093610041CF8093AD0125EA3C
:1002800031E080E0A6CF8E81E1CF8093AF0125EAF7
:1002900031E080E09ECF2FEA31E081E09ACF9B8170
:1002A0009130F1F09230A1F0933041F080E090E491
:1002B0009093760092CFC4E0C80FA4CF811118C0EC
:1002C0008EE890E09093AB018093AA0184E0EFCF99
:1002D00080E490E09093AB018093AA0182E1E7CFA4
:1002E00082E590E09093AB018093AA0182E1DFCF99
:1002F000813051F08230D1F684E690E09093AB01EA
:100300008093AA018EE0D3CF82E790E09093AB0177
:100310008093AA018CE1CBCF85B7826085BF8BB774
:1003200080648BBF0895A82FB92F80E090E041E052
:1003300050EA609530E009C02D9182279795879506
:1003400010F084279527305EC8F36F5FA8F30895F7
:10035000EADF8D939D930895CF93CFB7CF93C39545
:10036000B09BE9F7B09B09C0B09B07C0B09B05C02C
:10037000B09B03C0B09B01C0A1C0DF93C091A90195
:10038000DD27C055DE4FB09B02C0DF91EBCF2F932E
:100390000F931F9306B32FEF00FB20F94F933F936A
:1003A00016B34FEF012700FB21F93BE031C04E7F30
:1003B000012F16B3216028C0102F4D7F226000004E
:1003C00006B329C04B7F2460012F000016B32BC059
:1003D00016B3477F28602AC04F7E06B320612CC029
:1003E0004F7D16B320622FC04F7B06B3206432C00E
:1003F000422706B349934FEF0000102710FB20F966
:1004000016B31370C9F1297F91F2012700FB21F97E
:1004100006B3237F89F2315058F1102710FB22F9DF
:1004200016B3277E79F2012700FB23F92F7C81F296
:1004300006B3102710FB24F92F7971F200C016B310
:10044000012700FB25F92F7359F200C006B31027CE
:1004500010FB26F9223040F200C016B3012700FB42
:1004600027F9243028F64F77206816B30000F9CF1B
:1004700010E41ABF002717C03B503195C31BD04072
:1004800010E41ABF0881033CE9F00B34D9F0209145
:10049000A7011981110F1213EDCF093641F10D3269
:1004A00011F0013E39F70093AE013F914F911F913A
:1004B0000F912F91DF91CAB7C6FD51CFCF91CFBF1A
:1004C000CF9118952091AE01222379F31091AC01C0
:1004D000112311F5343012F13093AC012093A801AF
:1004E0001091A9013BE0311B3093A90117C0009185
:1004F000AC0101308CF40AE53091610034FD10C08C
:1005000000936100CCE9D1E00FC02795A8F45150C9
:10051000A9F4220F0000F9CF4AE503C042ED01C063
:10052000432FC4E1D0E032E017B31360C09A17BB89
:1005300008B320E413E05F93012756E008BB27953A
:1005400020F4515021F4220FF9CF012756E000008A
:100550003B5A08BBD0F2279528F4515029F4220FBA
:100560000000F9CF012756E0279508BB20F4515031
:1005700021F4220FF9CF012756E02991332308BB3C
:1005800021F60C7F1091AD01110FC651D04008BB70
:1005900011F01093A70110E41ABF016017B31C7F7C
:1005A000402F4C7F5F9100C000C008BB17BB48BB09
:1005B0007CCFFC01009741F01182108213821282DD
:1005C00077836683558344830895FC01009721F166
:1005D000828193812481358121503109AC014F5FA3
:1005E0005F4F242335234081518142175307B1F0D7
:1005F00026813781D901A80FB91F6C938481958119
:100600009C01215031098281938101968223932399
:100610009383828380E0089582E0089581E00895C5
:10062000FC010097D9F020813181828193812817C4
:10063000390789F0A681B781A20FB31F8C9190E092
:1006400044815581415051092F5F3F4F2423352369
:100650003183208308958FEF91E008958FEF92E02A
:100660000895FC0181E0408151812281338142174C
:10067000530709F080E00895FC0124813581C90108
:100680000197228133812F5F3F4F2823392381E057
:10069000408151814217530709F080E008959FEE91
:1006A000980F993010F08EEF0895E82FF0E0EE0FDC
:1006B000FF1FEE5BFF4F908199B9918190BD089526
:1006C000863091F050F0873029F0883059F496E860
:1006D00090BD089594E890BD0895853019F490E890
:1006E00090BD089581E0089592E890BD089582300C
:1006F00069F0833031F0813011F080E0089581E0BD
:10070000089580B5806B80BD83E0089580B5806AD0
:1007100080BD82E00895EF92FF920F931F93CF93D5
:10072000DF93E90146DFA701B801CE0142DF899AD4
:10073000939A8AB188618AB980E0DF91CF911F9145
:100740000F91FF90EF9008951AB80895CF93DF931B
:10075000EC0187DF811103C0CE0162DF8CB9DF912C
:10076000CF910895CF93DF93EC0186DF882319F0B2
:10077000DF91CF9108956CB1CE01DF91CF9125CF5C
:10078000582F48E080E057FD18C0C398550F880FD8
:10079000B4998F5FC59A32B72091CA0192B7931B63
:1007A0009217E0F3C59832B72091CA0192B7931B14
:1007B0009217E0F3415039F70895C39AE7CF8FB904
:1007C000779BFECF8FB108958091C9018DB980913B
:1007D000C6018EB908958823A1F08830B8F520ECC1
:1007E00033E03093C8012093C7018430D9F0F0F092
:1007F0008630A9F018F1873089F483E08093CA012C
:1008000008958FED93E09093C8018093C70182E52E
:100810008093C90181E08093C601089580EC8093A4
:10082000CA01089588E18093CA010895823051F089
:100830008330A1F780E38093CA0108958CE0809310
:10084000CA01089580E68093CA0108952FED33E030
:100850003093C8012093C7011092C601893061F01E
:1008600078F08B3029F08C3091F681E08093C601CE
:1008700081E58093C901089582E58093C9010895B7
:10088000883029F683E58093C901089522B79091B5
:10089000CA0182B7821B8917E0F3089587B38C627F
:1008A00087BBC298C59822B79091CA0182B7821BB4
:1008B0008917E0F3C29A22B79091CA0182B7821BCE
:1008C0008917E0F3C2988091C7019091C8018F5DAC
:1008D000934009F008958091C9018DB98091C601B6
:1008E0008EB9089587B3837D87BB88B3837D88BB2A
:1008F0001DB80895CF93DF93C0E2E091C701F09156
:10090000C8018CEA0995E091C701F091C80183E51F
:100910000995E091C701F091C80180E00995D82FB1
:10092000E091C701F091C80180E00995D33529F124
:100930001DB8C59A22B79091CA0182B7821B891748
:10094000E0F3C59822B79091CA0182B7821B89173C
:10095000E0F38091C7019091C8018F5D934031F021
:10096000C15059F681E0DF91CF9108958091C9017E
:100970008DB98091C6018EB9F3CF80E0DF91CF9120
:100980000895CF92DF92EF92FF926B017C01862F48
:100990008170880F880F880FE091C701F091C8011E
:1009A00080620995D701C60129E0B695A79597956C
:1009B00087952A95D1F7E091C701F091C801099573
:1009C000D701C601B695A79597958795E091C70180
:1009D000F091C8010995E091C701F091C80180E04C
:1009E000FF90EF90DF90CF900994CF92DF92EF923B
:1009F000FF920F931F93CF93DF931F92CDB7DEB774
:100A00006B017C01142F962F9170892F880F880F0E
:100A1000880FE091C701F091C8018064298309958E
:100A2000D701C60129E0B695A795979587952A9590
:100A3000D1F7E091C701F091C8010995D701C6012E
:100A4000B695A79597958795E091C701F091C80154
:100A50000995E091C701F091C801812F099529817D
:100A60002223A9F01F3789F002B71EE1C701B601A2
:100A700088DF8F3761F482B7801B8D3310F002B7A7
:100A800011501111F3CF81E003C08FE0B2D080E0AC
:100A90000F90DF91CF911F910F91FF90EF90DF901A
:100AA000CF900895CF92DF92EF92FF920F931F9312
:100AB000CF93DF931F92CDB7DEB76B017C01E0913E
:100AC000C701F091C8018CE449830995D701C6019B
:100AD00029E0B695A795979587952A95D1F7E09146
:100AE000C701F091C8010995D701C601B695A79530
:100AF00097958795E091C701F091C8010995E0911C
:100B0000C701F091C80180E0099549814F3FE1F0AC
:100B100002B71EE1C701B60134DF8F3F99F482B7F7
:100B2000801B8D3310F002B711501111F3CF81E00B
:100B30000F90DF91CF911F910F91FF90EF90DF9079
:100B4000CF90089580E0F4CF8FE053D080E0F0CFD5
:100B50001F93CF93DF931F92CDB7DEB7182FE0918D
:100B6000C701F091C80180EA99830995E091C70116
:100B7000F091C8019981892F0995E091C701F09101
:100B8000C801812F0995E091C701F091C80180E06B
:100B90000F90DF91CF911F9109941F93CF93DF9313
:100BA00000D0CDB7DEB7182FE091C701F091C80192
:100BB00080EC6A8399830995E091C701F091C8019F
:100BC0009981892F0995E091C701F091C801812F82
:100BD0000995E091C701F091C8016A81862F0995B6
:100BE0008EE107D080E00F900F90DF91CF911F91A1
:100BF0000895882349F030E022B792B7921B9C33C6
:100C0000E0F33F5F3813F8CF0895EF92FF920F9310
:100C10001F93CF93DF93DC011196EC914E2F50E0A0
:100C2000FA013197ED30F10570F080E024E931E010
:100C30003093AB012093AA01DF91CF911F910F91C7
:100C4000FF90EF900895EC01ED5EFF4F09948091C5
:100C50009101811112C08B8190E0982F88272A8101
:100C6000822BAA2797FDA095BA2F80938D01909390
:100C70008E01A0938F01B09390018F8190E0982F07
:100C800088272E81822B90938C0180938B0185E0A5
:100C9000809393018FEFCACF80919101811112C08F
:100CA0008B8190E0982F88272A81822BAA2797FD95
:100CB000A095BA2F80938D0190938E01A0938F0100
:100CC000B093900110928A011092890110928801CC
:100CD0008F8190E0982F88272E81822B90938C0112
:100CE00080938B0186E0809393018FEF9FCFFADD95
:100CF00085B3836085BBA998A89A80E097CF89E0E7
:100D00006ADD1092910185B3836085BBA898A99A8A
:100D1000C5DD80E08BCFE091C701F091C8018A81E9
:100D2000099580939401E091C701F091C8018B81EE
:100D3000099580939501E091C701F091C8018C81DC
:100D4000099580939601E091C701F091C8018D81CA
:100D500009958093970184E069CF80919101811179
:100D600012C08B8190E0982F88272A81822BAA2796
:100D700097FDA095BA2F80938D0190938E01A0933B
:100D80008F01B09390018F8190E0982F88272E815A
:100D9000822B90938C0180938B0182E0809393014E
:100DA0008FEF44CFA7DD8093940181E03FCF809106
:100DB0009101811112C08B8190E0982F88272A81A0
:100DC000822BAA2797FDA095BA2F80938D0190932F
:100DD0008E01A0938F01B09390013C812D81822FD1
:100DE0008F7080938801822F807FB0E18B9FC0013C
:100DF0001124830F911D90938A018093890120FD16
:100E0000809387018F8190E0982F88272E81822BF5
:100E100090938C0180938B0181E0809393018FEFFD
:100E200005CF80919101811112C08B8190E0982FA4
:100E300088272A81822BAA2797FDA095BA2F809315
:100E40008D0190938E01A0938F01B09390018F81BB
:100E500090E0982F88272E81822B90938C0180938D
:100E60008B0183E0809393018FEFE0CE809191011D
:100E7000811112C08B8190E0982F88272A81822BC4
:100E8000AA2797FDA095BA2F80938D0190938E018C
:100E9000A0938F01B093900110928A011092890162
:100EA000109288018F8190E0982F88272E81822BC5
:100EB00090938C0180938B0184E0809393018FEF5A
:100EC000B5CE8A81809392011092940181E0AECEDA
:100ED00081E0809391018A819B81AC81BD81809367
:100EE0008D0190938E01A0938F01B093900180E0CB
:100EF0009DCE8A81D4DB809394018B81E1DB80934A
:100F000095018C81F4DB809396011092970160E843
:100F1000E62EF12C07E710E027E731E040E850E04B
:100F200067EF70E08FE791E0F6DB84E07FCECF9251
:100F3000DF92EF92FF920F931F93CF93DF93EC0119
:100F4000F62E809193019EEF980F923068F08530D5
:100F500009F46CC08FEFDF91CF911F910F91FF903B
:100F6000EF90DF90CF900895833079F5662309F4F0
:100F700059C080918D0190918E01A0918F01B09107
:100F800090010FEF060F10E00F5F1F4F0C0F1D1F9A
:100F9000DFDD899380918D0190918E01A0918F0169
:100FA000B09190010196A11DB11D80938D01909388
:100FB0008E01A0938F01B0939001C017D10741F724
:100FC00087E08F1578F58F2DC6CF662359F1609194
:100FD0008D0170918E0180918F01909190010FEFA2
:100FE0000F0D10E00F5F1F4F0C0F1D1FCADC899300
:100FF00080918D0190918E01A0918F01B09190010F
:10100000BC01CD016F5F7F4F8F4F9F4F60938D016C
:1010100070938E0180938F0190939001C017D10738
:1010200029F7CECF109293018F2D95CF2FEF260F5A
:10103000288380918D0190918E01A0918F01B091B4
:1010400090010196A11DB11D80938D0190938E0199
:10105000A0938F01B0939001223008F4B1CF8E019C
:101060000F5F1F4F8EEFD82ED60EC12CE12C0AC079
:101070008827892B19F0C882EE24E394C394CD14F9
:1010800009F49ECF87E791E0CBDAF80181938F01D5
:1010900040918D0150918E0160918F01709190016E
:1010A0004F5F5F4F6F4F7F4F40938D0150938E0185
:1010B00060938F0170939001EE20D1F2EE24E394BF
:1010C000DDCFAF92BF92CF92DF92FF920F931F932B
:1010D000CF93DF938C0190919301913079F0892F18
:1010E0008D7F843059F08FEFDF91CF911F910F9159
:1010F000FF90DF90CF90BF90AF900895662309F4E2
:1011000098C0F62E5801E801D12CC12C10E048C03F
:10111000963009F463C0913009F44EC020918B01E0
:1011200030918C012150310930938C0120938B0137
:10113000232BD9F4109293018091880181FF3AC04A
:101140008091870190E02091890130918A01821776
:10115000930781F160918D0170918E0180918F01D3
:101160009091900148819EDC11E040918D01509159
:101170008E0160918F01709190014F5F5F4F6F4FB3
:101180007F4F40938D0150938E0160938F01709338
:101190009001C3942196CF1409F44CC0909193010F
:1011A000943009F0B5CF688180918D0190918E01C6
:1011B000F4DCB4CF11E0D9CF8091890190918A01FC
:1011C000892BB1F460918D0170918E0180918F0116
:1011D0009091900121E0488108DCA0CFCC2061F102
:1011E000CD1408F09BCF68818FE791E0EED996CFC0
:1011F00060918D0170918E0180918F01909190018D
:1012000020E04881F2DB8091870181508093870143
:10121000811184CF60918D0170918E0180918F0139
:101220009091900148813EDC8091890180938701F3
:1012300075CF10E0812F58CFF501D080D3946ECFB9
:1012400012BA18BA8BEF81BB8FEF87BB17BA83E056
:1012500084BB9EEF95BB83BFA998A89A5DD878946C
:1012600002C05F9908C031D75D9BFBCF8FE791E04B
:101270006DDA5F9BF8CF87E791E074DAF4CFF894EA
:02128000FFCF9E
:10128200FF5AC309E104700237019B004D0026009A
:0612920012000C00060032
:00000001FF
